:100000000C945F000C947E000C947E000C947E0097
:100010000C947E000C947E000C947E000C947E0068
:100020000C947E000C947E000C947E000C947E0058
:100030000C947E000C94F7000C947E000C947E00CF
:100040000C947E000C947E000C947E000C947E0038
:100050000C947E000C947E000C947E000C947E0028
:100060000C947E000C947E000C947E000C947E0018
:100070000C947E000C947E000C947E000C947E0008
:100080000C947E000C947E000C947E00A101A801CB
:10009000BA01CC01DE01F00102021402260238028C
:1000A0004A025C026E029A02B402B402A002B402D6
:1000B000B402A602B402B402AC02B402B402112427
:1000C0001FBECFEFD0E4DEBFCDBF11E0A0E0B1E0B6
:1000D000E6EEF5E000E00BBF02C007900D92A23102
:1000E000B107D9F721E0A2E1B1E001C01D92AA3128
:1000F000B207E1F70E94B9020C94F1020C940000DF
:10010000CF93DF9300D01F92CDB7DEB789837B8377
:100110006A8389818A3031F48A819B81BC018DE0B8
:100120000E94800080EC90E0FC018081882F90E0AC
:1001300080729927892BB1F386EC90E02981FC012C
:10014000208380E090E00F900F900F90DF91CF918F
:100150000895CF93DF93CDB7DEB781E890E02BE031
:10016000FC01208388E890E02DE730E0FC0131833A
:1001700020838FE690E022E0FC01208384E890E079
:10018000FC011182108280910E0190910F01A091CB
:100190001001B09111018093130190931401A09369
:1001A0001501B09316018FE590E02FE530E0F901DD
:1001B00020812068FC0120830000DF91CF91089509
:1001C000CF93DF93CDB7DEB781E890E0FC011082DA
:1001D0000000DF91CF910895CF93DF93CDB7DEB7C5
:1001E00081E0809312010000DF91CF9108951F926A
:1001F0000F9200905F000F92112400905B000F920D
:100200002F933F934F935F936F937F938F939F931E
:10021000AF93BF93EF93FF93CF93DF93CDB7DEB749
:100220008091130190911401A0911501B0911601D4
:100230000197A109B1098093130190931401A09330
:100240001501B09316018091130190911401A091B2
:100250001501B0911601892B8A2B8B2B91F40E94EA
:10026000EC0080910E0190910F01A0911001B091CE
:1002700011018093130190931401A0931501B09381
:1002800016010000DF91CF91FF91EF91BF91AF91E7
:100290009F918F917F916F915F914F913F912F919E
:1002A0000F9000925B000F9000925F000F901F90E4
:1002B0001895CF93DF9300D000D0CDB7DEB7698318
:1002C0007A838B839C8389819A81AB81BC81809363
:1002D0000E0190930F01A0931001B0931101809132
:1002E0000E0190910F01A0911001B0911101809326
:1002F000130190931401A0931501B093160100000F
:100300000F900F900F900F90DF91CF910895CF93A2
:10031000DF93CDB7DEB78091180190911901CC0120
:10032000A0E0B0E040E050E02CE030E0841B950B12
:100330002817390708F4E4C08A5B9F4FFC010C942E
:10034000E80281E090E09093190180931801DDC0EC
:1003500080911701882339F484E090E0909319018B
:1003600080931801D2C082E090E0909319018093AD
:100370001801CBC080911701882339F483E090E005
:100380009093190180931801C0C082E090E090938F
:10039000190180931801B9C080911701882339F49D
:1003A00083E090E09093190180931801AEC084E03F
:1003B00090E09093190180931801A7C080911701D4
:1003C000882339F487E090E0909319018093180115
:1003D0009CC085E090E0909319018093180195C02E
:1003E00080911701882339F486E090E090931901F9
:1003F000809318018AC085E090E090931901809362
:10040000180183C080911701882339F486E090E0B9
:10041000909319018093180178C087E090E0909341
:1004200019018093180171C080911701882339F454
:100430008AE090E0909319018093180166C088E0EB
:1004400090E090931901809318015FC0809117018B
:10045000882339F489E090E0909319018093180182
:1004600054C088E090E090931901809318014DC02A
:1004700080911701882339F489E090E09093190165
:100480008093180142C08AE090E090931901809314
:1004900018013BC080911701882339F481E090E076
:1004A000909319018093180130C08BE090E09093F5
:1004B00019018093180129C080911701882339F40C
:1004C0008CE090E090931901809318011EC08BE09E
:1004D00090E0909319018093180117C08091170143
:1004E000882339F48CE090E09093190180931801EF
:1004F0000CC081E090E0909319018093180105C031
:100500001092190110921801000080911801909129
:100510001901CC01A0E0B0E041E050E02BE030E078
:10052000841B950B28173907E8F08D5A9F4FFC0163
:100530000C94E80285E290E021E0FC01208315C0E4
:1005400085E290E022E0FC0120830FC085E290E08C
:1005500024E0FC01208309C085E290E022E0FC0158
:10056000208303C0000001C000000000DF91CF9194
:100570000895CF93DF93CDB7DEB781E290E0FC0121
:10058000108284E290E02FEFFC01208382E290E071
:100590002FEFFC01208385E290E0FC0110826CE2E9
:1005A00071E080E090E00E9459010E94A90080E281
:1005B00090E0209117012170FC0120830E948701A7
:1005C0000000809112018823E1F310921201EFCF15
:1005D000EE0FFF1F0024001C0BBE0790F691E02DCC
:0605E0000994F894FFCF1E
:1005E6000000000200000000800000000000010082
:0205F600000003
:00000001FF
