:100000000C9457000C9476000C9476000C947600B7
:100010000C9476000C9476000C9476000C94760088
:100020000C9476000C9476000C9476000C94760078
:100030000C9476000C94EF000C9476000C947600EF
:100040000C9476000C9476000C9476000C94760058
:100050000C9476000C9476000C9476000C94760048
:100060000C9476000C9476000C9476000C94760038
:100070000C9476000C9476000C9476000C94760028
:100080000C9476000C9476000C9476009901A001F3
:10009000AC01D401F1012402410274028602E6029D
:1000A000E602B702C502CB02D902DF02E602112442
:1000B0001FBECFEFD0E4DEBFCDBF11E0A0E0B1E0C6
:1000C000E2E6F6E000E00BBF02C007900D92A2311D
:1000D000B107D9F721E0A2E1B1E001C01D92AB3137
:1000E000B207E1F70E94EF020C942F030C9400007A
:1000F000CF93DF9300D01F92CDB7DEB789837B8388
:100100006A8389818A3031F48A819B81BC018DE0C8
:100110000E94780080EC90E0FC018081882F90E0C4
:1001200080729927892BB1F386EC90E02981FC013C
:10013000208380E090E00F900F900F90DF91CF919F
:100140000895CF93DF93CDB7DEB781E890E02BE041
:10015000FC01208388E890E02DE730E0FC0131834A
:1001600020838FE690E022E0FC01208384E890E089
:10017000FC011182108280910E0190910F01A091DB
:100180001001B09111018093130190931401A09379
:100190001501B09316018FE590E02FE530E0F901ED
:1001A00020812068FC0120830000DF91CF91089519
:1001B000CF93DF93CDB7DEB781E890E0FC011082EA
:1001C0000000DF91CF910895CF93DF93CDB7DEB7D5
:1001D00081E0809312010000DF91CF9108951F927A
:1001E0000F9200905F000F92112400905B000F921D
:1001F0002F933F934F935F936F937F938F939F932F
:10020000AF93BF93EF93FF93CF93DF93CDB7DEB759
:100210008091130190911401A0911501B0911601E4
:100220000197A109B1098093130190931401A09340
:100230001501B09316018091130190911401A091C2
:100240001501B0911601892B8A2B8B2B91F40E94FA
:10025000E40080910E0190910F01A0911001B091E6
:1002600011018093130190931401A0931501B09391
:1002700016010000DF91CF91FF91EF91BF91AF91F7
:100280009F918F917F916F915F914F913F912F91AE
:100290000F9000925B000F9000925F000F901F90F4
:1002A0001895CF93DF9300D000D0CDB7DEB7698328
:1002B0007A838B839C8389819A81AB81BC81809373
:1002C0000E0190930F01A0931001B0931101809142
:1002D0000E0190910F01A0911001B0911101809336
:1002E000130190931401A0931501B093160100001F
:1002F0000F900F900F900F90DF91CF910895CF93B3
:10030000DF93CDB7DEB78091180190911901CC0130
:10031000A0E0B0E040E050E028E030E0841B950B26
:100320002817390708F404C18A5B9F4FFC010C941D
:10033000260381E090E0909319018093180102C197
:1003400085E290E027E0FC01208382E090E090933A
:10035000190180931801F6C080911A01882339F49D
:1003600082E090E09093190180931801EBC0809196
:100370001A01813039F485E090E09093190180935F
:100380001801E0C080911A01823039F483E090E0D6
:100390009093190180931801D5C087E090E0909365
:1003A000190180931801CEC080911A01823039F46E
:1003B00084E090E09093190180931801C3C080916C
:1003C0001A01833039F487E090E09093190180930B
:1003D0001801B8C082E090E0909319018093180151
:1003E000B1C080911A01823059F4809117018A308E
:1003F00038F484E090E0909319018093180123C0B1
:1004000080911A01833059F4809117018A3038F4B1
:1004100087E090E0909319018093180114C08091B7
:1004200017018A3048F083E090E09093190180939F
:1004300018011092170186C082E090E09093190194
:10044000809318017FC07EC080911A01813039F4F9
:1004500086E090E0909319018093180173C0809119
:100460001A01833039F487E090E09093190180936A
:10047000180168C082E090E0909319018093180100
:1004800061C080911A01813059F4809117018A303E
:1004900038F486E090E0909319018093180123C00E
:1004A00080911A01833059F4809117018A3038F411
:1004B00087E090E0909319018093180114C0809117
:1004C00017018A3048F085E090E0909319018093FD
:1004D00018011092170136C082E090E09093190144
:1004E000809318012FC02EC080911A01833039F4F7
:1004F00088E090E0909319018093180123C082E076
:1005000090E090931901809318011CC080911A010A
:10051000833039F488E090E09093190180931801BA
:1005200011C082E090E090931901809318010AC0F5
:1005300085E290E027E0FC012083109219011092DF
:10054000180100008091180190911901CC01A0E0E0
:10055000B0E041E050E027E030E0841B950B281725
:10056000390790F1815B9F4FFC010C94260385E2D3
:1005700090E0FC018081882359F185E290E0FC0144
:1005800020812150FC01208323C0809117018F5FBF
:100590008093170120C085E290E0FC0180818930C2
:1005A000C9F085E290E0FC0120812F5FFC012083EF
:1005B00011C0809117018F5F809317010CC085E2F5
:1005C00090E0FC01108207C0000005C0000003C0DD
:1005D000000001C000000000DF91CF910895CF938B
:1005E000DF93CDB7DEB781E290E0FC01108282E2BA
:1005F00090E02FEFFC01208384E290E02FEFFC01DC
:10060000208385E290E027E0FC01208364E670E02F
:1006100080E090E00E9451010E94A1001092170119
:10062000109219011092180180E290E0FC01808183
:100630008095837080931A010E947F010000809151
:1006400012018823E1F310921201EECFEE0FFF1F8B
:100650000024001C0BBE0790F691E02D0994F8943D
:02066000FFCFCA
:10066200000000020000000078000000000001000D
:02067200000086
:00000001FF
