:100000000C945B000C947A000C947A000C947A00A7
:100010000C947A000C947A000C947A000C947A0078
:100020000C947A000C947A000C947A000C947A0068
:100030000C947A000C94F3000C947A000C947A00DF
:100040000C947A000C947A000C947A000C947A0048
:100050000C947A000C947A000C947A000C947A0038
:100060000C947A000C947A000C947A000C947A0028
:100070000C947A000C947A000C947A000C947A0018
:100080000C947A000C947A000C947A009D01A401DF
:10009000EC01FE01B601C801DA011502270239029E
:1000A0004B027702A902A9027D02830289028F0214
:1000B00095029B02A10211241FBECFEFD0E4DEBF48
:1000C000CDBF11E0A0E0B1E0E0EEF5E000E00BBF55
:1000D00002C007900D92A231B107D9F721E0A2E149
:1000E000B1E001C01D92AA31B207E1F70E94AE0251
:1000F0000C94EE020C940000CF93DF9300D01F927B
:10010000CDB7DEB789837B836A8389818A3031F4F6
:100110008A819B81BC018DE00E947C0080EC90E094
:10012000FC018081882F90E080729927892BB1F3A0
:1001300086EC90E02981FC01208380E090E00F9024
:100140000F900F90DF91CF910895CF93DF93CDB7AC
:10015000DEB781E890E02BE0FC01208388E890E0A6
:100160002DE730E0FC01318320838FE690E022E030
:10017000FC01208384E890E0FC01118210828091D0
:100180000E0190910F01A0911001B0911101809387
:10019000130190931401A0931501B09316018FE5FC
:1001A00090E02FE530E0F90120812068FC012083F8
:1001B0000000DF91CF910895CF93DF93CDB7DEB7E5
:1001C00081E890E0FC0110820000DF91CF9108955A
:1001D000CF93DF93CDB7DEB781E0809312010000AB
:1001E000DF91CF9108951F920F9200905F000F92C0
:1001F000112400905B000F922F933F934F935F93D6
:100200006F937F938F939F93AF93BF93EF93FF93DE
:10021000CF93DF93CDB7DEB7809113019091140196
:10022000A0911501B09116010197A109B109809320
:10023000130190931401A0931501B09316018091BE
:10024000130190911401A0911501B0911601892B11
:100250008A2B8B2B91F40E94E80080910E019091E3
:100260000F01A0911001B09111018093130190939F
:100270001401A0931501B09316010000DF91CF91F6
:10028000FF91EF91BF91AF919F918F917F916F916E
:100290005F914F913F912F910F9000925B000F90D3
:1002A00000925F000F901F901895CF93DF9300D0BE
:1002B00000D0CDB7DEB769837A838B839C83898135
:1002C0009A81AB81BC8180930E0190930F01A09322
:1002D0001001B093110180910E0190910F01A09136
:1002E0001001B09111018093130190931401A09318
:1002F0001501B093160100000F900F900F900F9012
:10030000DF91CF910895CF93DF93CDB7DEB7809182
:10031000180190911901CC01A0E0B0E040E050E05C
:100320002AE030E0841B950B2817390708F4C5C074
:100330008A5B9F4FFC010C94E50281E090E0909372
:10034000190180931801BEC080911701882339F4E8
:1003500084E090E09093190180931801B3C082E08B
:1003600090E09093190180931801ACC0809117011F
:10037000882339F485E090E0909319018093180167
:10038000A1C082E090E090931901809318019AC077
:1003900080911701882339F486E090E09093190149
:1003A000809318018FC082E090E0909319018093B0
:1003B000180188C080911701882339F481E090E00A
:1003C00090931901809318017DC082E090E0909392
:1003D00019018093180176C080911701882339F4A0
:1003E00083E090E090931901809318016BC082E044
:1003F00090E0909319018093180164C080911701D7
:10040000882339F483E090E09093190180931801D8
:1004100059C087E090E0909319018093180185E21C
:1004200090E021E0FC0120834DC0809117018823DA
:1004300039F484E090E0909319018093180142C050
:1004400088E090E090931901809318013BC080915F
:100450001701882339F485E090E090931901809387
:10046000180130C089E090E0909319018093180141
:1004700029C080911701882339F486E090E0909399
:100480001901809318011EC08AE090E09093190131
:100490008093180117C080911701882339F481E0F7
:1004A00090E090931901809318010CC087E090E0D0
:1004B000909319018093180105C0109219011092B0
:1004C000180100008091180190911901CC01A0E061
:1004D000B0E041E050E029E030E0841B950B2817A4
:1004E0003907A8F18F5A9F4FFC010C94E50285E271
:1004F00090E021E0FC0120832DC085E290E022E025
:10050000FC01208327C085E290E024E0FC012083E9
:1005100021C085E290E022E0FC0120831BC085E23F
:1005200090E021E0FC01208315C085E290E022E00C
:10053000FC0120830FC085E290E024E0FC012083D1
:1005400009C085E290E022E0FC01208303C00000A6
:1005500001C000000000DF91CF910895CF93DF9399
:10056000CDB7DEB781E290E0FC01108284E290E03A
:100570002FEFFC01208382E290E02FEFFC0120832B
:1005800085E290E0FC0110826CE271E080E090E096
:100590000E9455010E94A50080E290E0FC0180814C
:1005A000882F90E08170992721E0892B09F020E0C5
:1005B000822F809317010E94830100008091120115
:1005C0008823E1F310921201E7CFEE0FFF1F002402
:1005D000001C0BBE0790F691E02D0994F894FFCF14
:1005E00000000002000000007C000000000001008C
:0205F000000009
:00000001FF
