:100000000C944D000C946C000C946C000C946C00DF
:100010000C946C000C946C000C946C000C946C00B0
:100020000C946C000C946C000C946C000C946C00A0
:100030000C946C000C94E5000C946C000C946C0017
:100040000C946C000C946C000C946C000C946C0080
:100050000C946C000C946C000C946C000C946C0070
:100060000C946C000C946C000C946C000C946C0060
:100070000C946C000C946C000C946C000C946C0050
:100080000C946C000C946C000C946C008F01960125
:10009000A801BA01CC01DE01F00111241FBECFEF8F
:1000A000D0E4DEBFCDBF11E0A0E0B1E0E2E0F5E0DA
:1000B00000E00BBF02C007900D92A231B107D9F743
:1000C00021E0A2E1B1E001C01D92AA31B207E1F73F
:1000D0000E943F020C947F020C940000CF93DF93A8
:1000E00000D01F92CDB7DEB789837B836A83898175
:1000F0008A3031F48A819B81BC018DE00E946E00C0
:1001000080EC90E0FC018081882F90E0807299273C
:10011000892BB1F386EC90E02981FC01208380E0FB
:1001200090E00F900F900F90DF91CF910895CF93B3
:10013000DF93CDB7DEB781E890E02BE0FC012083B0
:1001400088E890E02DE730E0FC01318320838FE6E2
:1001500090E022E0FC01208384E890E0FC01118221
:10016000108280910E0190910F01A0911001B09129
:1001700011018093130190931401A0931501B09382
:1001800016018FE590E02FE530E0F901208120682D
:10019000FC0120830000DF91CF910895CF93DF937E
:1001A000CDB7DEB781E890E0FC0110820000DF915E
:1001B000CF910895CF93DF93CDB7DEB781E08093E1
:1001C00012010000DF91CF9108951F920F920090CD
:1001D0005F000F92112400905B000F922F933F93CA
:1001E0004F935F936F937F938F939F93AF93BF933F
:1001F000EF93FF93CF93DF93CDB7DEB780911301D9
:1002000090911401A0911501B09116010197A109D7
:10021000B1098093130190931401A0931501B09339
:1002200016018091130190911401A0911501B091D4
:100230001601892B8A2B8B2B91F40E94DA00809176
:100240000E0190910F01A0911001B09111018093C6
:10025000130190931401A0931501B09316010000AF
:10026000DF91CF91FF91EF91BF91AF919F918F91CE
:100270007F916F915F914F913F912F910F900092DD
:100280005B000F9000925F000F901F901895CF9326
:10029000DF9300D000D0CDB7DEB769837A838B833C
:1002A0009C8389819A81AB81BC8180930E0190935C
:1002B0000F01A0931001B093110180910E01909154
:1002C0000F01A0911001B09111018093130190933F
:1002D0001401A0931501B093160100000F900F9028
:1002E0000F900F90DF91CF910895CF93DF93CDB70B
:1002F000DEB78091180190911901CC01A0E0B0E027
:1003000040E050E026E030E0841B950B28173907C9
:1003100008F478C08A5B9F4FFC010C94760281E060
:1003200090E0909319018093180171C0809117019A
:10033000882339F484E090E09093190180931801A8
:1003400066C082E090E090931901809318015FC02D
:1003500080911701882339F483E090E0909319018C
:100360008093180154C082E090E09093190180932B
:1003700018014DC080911701882339F483E090E083
:10038000909319018093180142C081E090E090930E
:100390001901809318013BC080911701882339F41B
:1003A00085E090E0909319018093180130C082E0BD
:1003B00090E0909319018093180129C08091170152
:1003C000882339F486E090E0909319018093180116
:1003D0001EC082E090E0909319018093180117C02D
:1003E00080911701882339F481E090E090931901FE
:1003F000809318010CC082E090E0909319018093E3
:10040000180105C010921901109218010000809186
:100410001801909119018330910551F184309105B3
:1004200030F48130910561F0029721F124C08530CC
:10043000910591F08530910548F0069799F01BC021
:1004400085E290E021E0FC01208315C085E290E088
:1004500022E0FC0120830FC085E290E024E0FC0153
:10046000208309C085E290E022E0FC01208303C0E4
:10047000000001C000000000DF91CF910895CF93EC
:10048000DF93CDB7DEB781E290E0FC01108284E219
:1004900090E02FEFFC01208382E290E02FEFFC013F
:1004A000208385E290E0FC0110826CE271E080E044
:1004B00090E00E9447010E94970080E290E0FC01DA
:1004C0008081882F90E08170992721E0892B09F0A5
:1004D00020E0822F809317010E9475010000809117
:1004E00012018823E1F310921201E7CFEE0FFF1FF4
:1004F0000024001C0BBE0790F691E02D0994F8949F
:02050000FFCF2B
:1005020000000002000000006E0000000000010078
:020512000000E7
:00000001FF
